{
  "_format": "hh-sol-artifact-1",
  "contractName": "Crowdfunding_Muneeb",
  "sourceName": "contracts/Crowdfunding_Muneeb.sol",
  "abi": [
    {
      "inputs": [
        {
          "internalType": "address",
          "name": "_kycRegistryAddress",
          "type": "address"
        }
      ],
      "stateMutability": "nonpayable",
      "type": "constructor"
    },
    {
      "anonymous": false,
      "inputs": [
        {
          "indexed": true,
          "internalType": "uint256",
          "name": "campaignId",
          "type": "uint256"
        }
      ],
      "name": "CampaignCompleted",
      "type": "event"
    },
    {
      "anonymous": false,
      "inputs": [
        {
          "indexed": true,
          "internalType": "uint256",
          "name": "campaignId",
          "type": "uint256"
        },
        {
          "indexed": false,
          "internalType": "string",
          "name": "title",
          "type": "string"
        },
        {
          "indexed": false,
          "internalType": "string",
          "name": "description",
          "type": "string"
        },
        {
          "indexed": false,
          "internalType": "uint256",
          "name": "goal",
          "type": "uint256"
        },
        {
          "indexed": true,
          "internalType": "address",
          "name": "creator",
          "type": "address"
        }
      ],
      "name": "CampaignCreated",
      "type": "event"
    },
    {
      "anonymous": false,
      "inputs": [
        {
          "indexed": true,
          "internalType": "uint256",
          "name": "campaignId",
          "type": "uint256"
        },
        {
          "indexed": true,
          "internalType": "address",
          "name": "contributor",
          "type": "address"
        },
        {
          "indexed": false,
          "internalType": "uint256",
          "name": "amount",
          "type": "uint256"
        }
      ],
      "name": "ContributionMade",
      "type": "event"
    },
    {
      "anonymous": false,
      "inputs": [
        {
          "indexed": true,
          "internalType": "uint256",
          "name": "campaignId",
          "type": "uint256"
        },
        {
          "indexed": true,
          "internalType": "address",
          "name": "creator",
          "type": "address"
        },
        {
          "indexed": false,
          "internalType": "uint256",
          "name": "amount",
          "type": "uint256"
        }
      ],
      "name": "FundsWithdrawn",
      "type": "event"
    },
    {
      "inputs": [],
      "name": "campaignCount",
      "outputs": [
        {
          "internalType": "uint256",
          "name": "",
          "type": "uint256"
        }
      ],
      "stateMutability": "view",
      "type": "function"
    },
    {
      "inputs": [
        {
          "internalType": "uint256",
          "name": "",
          "type": "uint256"
        }
      ],
      "name": "campaigns",
      "outputs": [
        {
          "internalType": "uint256",
          "name": "id",
          "type": "uint256"
        },
        {
          "internalType": "string",
          "name": "title",
          "type": "string"
        },
        {
          "internalType": "string",
          "name": "description",
          "type": "string"
        },
        {
          "internalType": "uint256",
          "name": "goal",
          "type": "uint256"
        },
        {
          "internalType": "uint256",
          "name": "fundsRaised",
          "type": "uint256"
        },
        {
          "internalType": "address payable",
          "name": "creator",
          "type": "address"
        },
        {
          "internalType": "enum Crowdfunding_Muneeb.CampaignStatus",
          "name": "status",
          "type": "uint8"
        },
        {
          "internalType": "bool",
          "name": "exists",
          "type": "bool"
        }
      ],
      "stateMutability": "view",
      "type": "function"
    },
    {
      "inputs": [
        {
          "internalType": "uint256",
          "name": "_campaignId",
          "type": "uint256"
        }
      ],
      "name": "contribute",
      "outputs": [],
      "stateMutability": "payable",
      "type": "function"
    },
    {
      "inputs": [
        {
          "internalType": "uint256",
          "name": "",
          "type": "uint256"
        },
        {
          "internalType": "address",
          "name": "",
          "type": "address"
        }
      ],
      "name": "contributions",
      "outputs": [
        {
          "internalType": "uint256",
          "name": "",
          "type": "uint256"
        }
      ],
      "stateMutability": "view",
      "type": "function"
    },
    {
      "inputs": [
        {
          "internalType": "string",
          "name": "_title",
          "type": "string"
        },
        {
          "internalType": "string",
          "name": "_description",
          "type": "string"
        },
        {
          "internalType": "uint256",
          "name": "_goal",
          "type": "uint256"
        }
      ],
      "name": "createCampaign",
      "outputs": [],
      "stateMutability": "nonpayable",
      "type": "function"
    },
    {
      "inputs": [],
      "name": "getAllCampaigns",
      "outputs": [
        {
          "components": [
            {
              "internalType": "uint256",
              "name": "id",
              "type": "uint256"
            },
            {
              "internalType": "string",
              "name": "title",
              "type": "string"
            },
            {
              "internalType": "string",
              "name": "description",
              "type": "string"
            },
            {
              "internalType": "uint256",
              "name": "goal",
              "type": "uint256"
            },
            {
              "internalType": "uint256",
              "name": "fundsRaised",
              "type": "uint256"
            },
            {
              "internalType": "address payable",
              "name": "creator",
              "type": "address"
            },
            {
              "internalType": "enum Crowdfunding_Muneeb.CampaignStatus",
              "name": "status",
              "type": "uint8"
            },
            {
              "internalType": "bool",
              "name": "exists",
              "type": "bool"
            }
          ],
          "internalType": "struct Crowdfunding_Muneeb.Campaign[]",
          "name": "",
          "type": "tuple[]"
        }
      ],
      "stateMutability": "view",
      "type": "function"
    },
    {
      "inputs": [
        {
          "internalType": "uint256",
          "name": "_campaignId",
          "type": "uint256"
        }
      ],
      "name": "getCampaign",
      "outputs": [
        {
          "internalType": "uint256",
          "name": "id",
          "type": "uint256"
        },
        {
          "internalType": "string",
          "name": "title",
          "type": "string"
        },
        {
          "internalType": "string",
          "name": "description",
          "type": "string"
        },
        {
          "internalType": "uint256",
          "name": "goal",
          "type": "uint256"
        },
        {
          "internalType": "uint256",
          "name": "fundsRaised",
          "type": "uint256"
        },
        {
          "internalType": "address",
          "name": "creator",
          "type": "address"
        },
        {
          "internalType": "enum Crowdfunding_Muneeb.CampaignStatus",
          "name": "status",
          "type": "uint8"
        }
      ],
      "stateMutability": "view",
      "type": "function"
    },
    {
      "inputs": [
        {
          "internalType": "uint256",
          "name": "_campaignId",
          "type": "uint256"
        }
      ],
      "name": "getCampaignStatus",
      "outputs": [
        {
          "internalType": "enum Crowdfunding_Muneeb.CampaignStatus",
          "name": "",
          "type": "uint8"
        }
      ],
      "stateMutability": "view",
      "type": "function"
    },
    {
      "inputs": [
        {
          "internalType": "uint256",
          "name": "_campaignId",
          "type": "uint256"
        },
        {
          "internalType": "address",
          "name": "_contributor",
          "type": "address"
        }
      ],
      "name": "getContribution",
      "outputs": [
        {
          "internalType": "uint256",
          "name": "",
          "type": "uint256"
        }
      ],
      "stateMutability": "view",
      "type": "function"
    },
    {
      "inputs": [],
      "name": "kycRegistry",
      "outputs": [
        {
          "internalType": "contract IKYCRegistry",
          "name": "",
          "type": "address"
        }
      ],
      "stateMutability": "view",
      "type": "function"
    },
    {
      "inputs": [
        {
          "internalType": "uint256",
          "name": "_campaignId",
          "type": "uint256"
        }
      ],
      "name": "withdrawFunds",
      "outputs": [],
      "stateMutability": "nonpayable",
      "type": "function"
    }
  ],
  "bytecode": "0x608060405234801561001057600080fd5b50604051612959380380612959833981810160405281019061003291906100e3565b806000806101000a81548173ffffffffffffffffffffffffffffffffffffffff021916908373ffffffffffffffffffffffffffffffffffffffff160217905550600060038190555050610110565b600080fd5b600073ffffffffffffffffffffffffffffffffffffffff82169050919050565b60006100b082610085565b9050919050565b6100c0816100a5565b81146100cb57600080fd5b50565b6000815190506100dd816100b7565b92915050565b6000602082840312156100f9576100f8610080565b5b6000610107848285016100ce565b91505092915050565b61283a8061011f6000396000f3fe60806040526004361061009c5760003560e01c80636c19e004116100645780636c19e004146101b95780637274e30d146101f657806386cdf60414610221578063c1cbbca71461024c578063e081dbf914610268578063ffa56a57146102a55761009c565b8063141961bc146100a1578063155dd5ee146100e55780633d891f591461010e5780634b155b971461014b5780635598f8cc14610176575b600080fd5b3480156100ad57600080fd5b506100c860048036038101906100c391906115df565b6102ce565b6040516100dc98979695949392919061177e565b60405180910390f35b3480156100f157600080fd5b5061010c600480360381019061010791906115df565b610460565b005b34801561011a57600080fd5b5061013560048036038101906101309190611848565b6107bc565b6040516101429190611888565b60405180910390f35b34801561015757600080fd5b506101606107e1565b60405161016d9190611902565b60405180910390f35b34801561018257600080fd5b5061019d600480360381019061019891906115df565b610805565b6040516101b0979695949392919061192c565b60405180910390f35b3480156101c557600080fd5b506101e060048036038101906101db91906115df565b610ac3565b6040516101ed91906119a9565b60405180910390f35b34801561020257600080fd5b5061020b610b55565b6040516102189190611888565b60405180910390f35b34801561022d57600080fd5b50610236610b5b565b6040516102439190611bc3565b60405180910390f35b610266600480360381019061026191906115df565b610e19565b005b34801561027457600080fd5b5061028f600480360381019061028a9190611848565b61108f565b60405161029c9190611888565b60405180910390f35b3480156102b157600080fd5b506102cc60048036038101906102c79190611d1a565b6110ea565b005b60016020528060005260406000206000915090508060000154908060010180546102f790611dd4565b80601f016020809104026020016040519081016040528092919081815260200182805461032390611dd4565b80156103705780601f1061034557610100808354040283529160200191610370565b820191906000526020600020905b81548152906001019060200180831161035357829003601f168201915b50505050509080600201805461038590611dd4565b80601f01602080910402602001604051908101604052809291908181526020018280546103b190611dd4565b80156103fe5780601f106103d3576101008083540402835291602001916103fe565b820191906000526020600020905b8154815290600101906020018083116103e157829003601f168201915b5050505050908060030154908060040154908060050160009054906101000a900473ffffffffffffffffffffffffffffffffffffffff16908060050160149054906101000a900460ff16908060050160159054906101000a900460ff16905088565b806001600082815260200190815260200160002060050160159054906101000a900460ff166104c4576040517f08c379a00000000000000000000000000000000000000000000000000000000081526004016104bb90611e51565b60405180910390fd5b813373ffffffffffffffffffffffffffffffffffffffff166001600083815260200190815260200160002060050160009054906101000a900473ffffffffffffffffffffffffffffffffffffffff1673ffffffffffffffffffffffffffffffffffffffff1614610569576040517f08c379a000000000000000000000000000000000000000000000000000000000815260040161056090611ee3565b60405180910390fd5b600060016000858152602001908152602001600020905060016002811115610594576105936116ec565b5b8160050160149054906101000a900460ff1660028111156105b8576105b76116ec565b5b146105f8576040517f08c379a00000000000000000000000000000000000000000000000000000000081526004016105ef90611f75565b60405180910390fd5b60008160040154905060008111610644576040517f08c379a000000000000000000000000000000000000000000000000000000000815260040161063b90611fe1565b60405180910390fd5b60028260050160146101000a81548160ff0219169083600281111561066c5761066b6116ec565b5b021790555060008260050160009054906101000a900473ffffffffffffffffffffffffffffffffffffffff1673ffffffffffffffffffffffffffffffffffffffff16826040516106bb90612032565b60006040518083038185875af1925050503d80600081146106f8576040519150601f19603f3d011682016040523d82523d6000602084013e6106fd565b606091505b5050905080610741576040517f08c379a000000000000000000000000000000000000000000000000000000000815260040161073890612093565b60405180910390fd5b8260050160009054906101000a900473ffffffffffffffffffffffffffffffffffffffff1673ffffffffffffffffffffffffffffffffffffffff16867ff440aec6b52895984d061d622e6edeba6210f7c3e059be920663140c084560d7846040516107ac9190611888565b60405180910390a3505050505050565b6002602052816000526040600020602052806000526040600020600091509150505481565b60008054906101000a900473ffffffffffffffffffffffffffffffffffffffff1681565b6000606080600080600080876001600082815260200190815260200160002060050160159054906101000a900460ff16610874576040517f08c379a000000000000000000000000000000000000000000000000000000000815260040161086b90611e51565b60405180910390fd5b6000600160008b815260200190815260200160002060405180610100016040529081600082015481526020016001820180546108af90611dd4565b80601f01602080910402602001604051908101604052809291908181526020018280546108db90611dd4565b80156109285780601f106108fd57610100808354040283529160200191610928565b820191906000526020600020905b81548152906001019060200180831161090b57829003601f168201915b5050505050815260200160028201805461094190611dd4565b80601f016020809104026020016040519081016040528092919081815260200182805461096d90611dd4565b80156109ba5780601f1061098f576101008083540402835291602001916109ba565b820191906000526020600020905b81548152906001019060200180831161099d57829003601f168201915b5050505050815260200160038201548152602001600482015481526020016005820160009054906101000a900473ffffffffffffffffffffffffffffffffffffffff1673ffffffffffffffffffffffffffffffffffffffff1673ffffffffffffffffffffffffffffffffffffffff1681526020016005820160149054906101000a900460ff166002811115610a5257610a516116ec565b5b6002811115610a6457610a636116ec565b5b81526020016005820160159054906101000a900460ff1615151515815250509050806000015181602001518260400151836060015184608001518560a001518660c0015198509850985098509850985098505050919395979092949650565b6000816001600082815260200190815260200160002060050160159054906101000a900460ff16610b29576040517f08c379a0000000000000000000000000000000000000000000000000000000008152600401610b2090611e51565b60405180910390fd5b6001600084815260200190815260200160002060050160149054906101000a900460ff16915050919050565b60035481565b6060600060035467ffffffffffffffff811115610b7b57610b7a611bef565b5b604051908082528060200260200182016040528015610bb457816020015b610ba1611526565b815260200190600190039081610b995790505b5090506000600190505b6003548111610e1157600160008281526020019081526020016000206040518061010001604052908160008201548152602001600182018054610c0090611dd4565b80601f0160208091040260200160405190810160405280929190818152602001828054610c2c90611dd4565b8015610c795780601f10610c4e57610100808354040283529160200191610c79565b820191906000526020600020905b815481529060010190602001808311610c5c57829003601f168201915b50505050508152602001600282018054610c9290611dd4565b80601f0160208091040260200160405190810160405280929190818152602001828054610cbe90611dd4565b8015610d0b5780601f10610ce057610100808354040283529160200191610d0b565b820191906000526020600020905b815481529060010190602001808311610cee57829003601f168201915b5050505050815260200160038201548152602001600482015481526020016005820160009054906101000a900473ffffffffffffffffffffffffffffffffffffffff1673ffffffffffffffffffffffffffffffffffffffff1673ffffffffffffffffffffffffffffffffffffffff1681526020016005820160149054906101000a900460ff166002811115610da357610da26116ec565b5b6002811115610db557610db46116ec565b5b81526020016005820160159054906101000a900460ff16151515158152505082600183610de291906120e2565b81518110610df357610df2612116565b5b60200260200101819052508080610e0990612145565b915050610bbe565b508091505090565b806001600082815260200190815260200160002060050160159054906101000a900460ff16610e7d576040517f08c379a0000000000000000000000000000000000000000000000000000000008152600401610e7490611e51565b60405180910390fd5b600060016000848152602001908152602001600020905060006002811115610ea857610ea76116ec565b5b8160050160149054906101000a900460ff166002811115610ecc57610ecb6116ec565b5b14610f0c576040517f08c379a0000000000000000000000000000000000000000000000000000000008152600401610f03906121d9565b60405180910390fd5b60003411610f4f576040517f08c379a0000000000000000000000000000000000000000000000000000000008152600401610f469061226b565b60405180910390fd5b34816004016000828254610f63919061228b565b92505081905550346002600085815260200190815260200160002060003373ffffffffffffffffffffffffffffffffffffffff1673ffffffffffffffffffffffffffffffffffffffff1681526020019081526020016000206000828254610fca919061228b565b925050819055503373ffffffffffffffffffffffffffffffffffffffff16837f0a4a91237423e0a1766a761c7cb029311d8b95d6b1b81db1b949a70c98b4e08e346040516110189190611888565b60405180910390a3806003015481600401541061108a5760018160050160146101000a81548160ff02191690836002811115611057576110566116ec565b5b0217905550827fbdef6a2e3aa892961a2dab48272f72f2bc1c7121eb1c0ed7e4a58e081c1e4be060405160405180910390a25b505050565b60006002600084815260200190815260200160002060008373ffffffffffffffffffffffffffffffffffffffff1673ffffffffffffffffffffffffffffffffffffffff16815260200190815260200160002054905092915050565b60008054906101000a900473ffffffffffffffffffffffffffffffffffffffff1673ffffffffffffffffffffffffffffffffffffffff1663b9209e33336040518263ffffffff1660e01b815260040161114391906122bf565b602060405180830381865afa158015611160573d6000803e3d6000fd5b505050506040513d601f19601f820116820180604052508101906111849190612306565b80611248575060008054906101000a900473ffffffffffffffffffffffffffffffffffffffff1673ffffffffffffffffffffffffffffffffffffffff1663f851a4406040518163ffffffff1660e01b8152600401602060405180830381865afa1580156111f5573d6000803e3d6000fd5b505050506040513d601f19601f820116820180604052508101906112199190612348565b73ffffffffffffffffffffffffffffffffffffffff163373ffffffffffffffffffffffffffffffffffffffff16145b611287576040517f08c379a000000000000000000000000000000000000000000000000000000000815260040161127e906123e7565b60405180910390fd5b60008351116112cb576040517f08c379a00000000000000000000000000000000000000000000000000000000081526004016112c290612453565b60405180910390fd5b600082511161130f576040517f08c379a0000000000000000000000000000000000000000000000000000000008152600401611306906124bf565b60405180910390fd5b60008111611352576040517f08c379a00000000000000000000000000000000000000000000000000000000081526004016113499061252b565b60405180910390fd5b6003600081548092919061136590612145565b91905055506040518061010001604052806003548152602001848152602001838152602001828152602001600081526020013373ffffffffffffffffffffffffffffffffffffffff168152602001600060028111156113c7576113c66116ec565b5b81526020016001151581525060016000600354815260200190815260200160002060008201518160000155602082015181600101908161140791906126ed565b50604082015181600201908161141d91906126ed565b50606082015181600301556080820151816004015560a08201518160050160006101000a81548173ffffffffffffffffffffffffffffffffffffffff021916908373ffffffffffffffffffffffffffffffffffffffff16021790555060c08201518160050160146101000a81548160ff021916908360028111156114a4576114a36116ec565b5b021790555060e08201518160050160156101000a81548160ff0219169083151502179055509050503373ffffffffffffffffffffffffffffffffffffffff166003547f5625a6c5db4545709e44f0b65b1d3e026dccf5419a55818c7f6be6d439006fbe858585604051611519939291906127bf565b60405180910390a3505050565b6040518061010001604052806000815260200160608152602001606081526020016000815260200160008152602001600073ffffffffffffffffffffffffffffffffffffffff16815260200160006002811115611586576115856116ec565b5b81526020016000151581525090565b6000604051905090565b600080fd5b600080fd5b6000819050919050565b6115bc816115a9565b81146115c757600080fd5b50565b6000813590506115d9816115b3565b92915050565b6000602082840312156115f5576115f461159f565b5b6000611603848285016115ca565b91505092915050565b611615816115a9565b82525050565b600081519050919050565b600082825260208201905092915050565b60005b8381101561165557808201518184015260208101905061163a565b60008484015250505050565b6000601f19601f8301169050919050565b600061167d8261161b565b6116878185611626565b9350611697818560208601611637565b6116a081611661565b840191505092915050565b600073ffffffffffffffffffffffffffffffffffffffff82169050919050565b60006116d6826116ab565b9050919050565b6116e6816116cb565b82525050565b7f4e487b7100000000000000000000000000000000000000000000000000000000600052602160045260246000fd5b6003811061172c5761172b6116ec565b5b50565b600081905061173d8261171b565b919050565b600061174d8261172f565b9050919050565b61175d81611742565b82525050565b60008115159050919050565b61177881611763565b82525050565b600061010082019050611794600083018b61160c565b81810360208301526117a6818a611672565b905081810360408301526117ba8189611672565b90506117c9606083018861160c565b6117d6608083018761160c565b6117e360a08301866116dd565b6117f060c0830185611754565b6117fd60e083018461176f565b9998505050505050505050565b6000611815826116ab565b9050919050565b6118258161180a565b811461183057600080fd5b50565b6000813590506118428161181c565b92915050565b6000806040838503121561185f5761185e61159f565b5b600061186d858286016115ca565b925050602061187e85828601611833565b9150509250929050565b600060208201905061189d600083018461160c565b92915050565b6000819050919050565b60006118c86118c36118be846116ab565b6118a3565b6116ab565b9050919050565b60006118da826118ad565b9050919050565b60006118ec826118cf565b9050919050565b6118fc816118e1565b82525050565b600060208201905061191760008301846118f3565b92915050565b6119268161180a565b82525050565b600060e082019050611941600083018a61160c565b81810360208301526119538189611672565b905081810360408301526119678188611672565b9050611976606083018761160c565b611983608083018661160c565b61199060a083018561191d565b61199d60c0830184611754565b98975050505050505050565b60006020820190506119be6000830184611754565b92915050565b600081519050919050565b600082825260208201905092915050565b6000819050602082019050919050565b6119f9816115a9565b82525050565b600082825260208201905092915050565b6000611a1b8261161b565b611a2581856119ff565b9350611a35818560208601611637565b611a3e81611661565b840191505092915050565b611a52816116cb565b82525050565b611a6181611742565b82525050565b611a7081611763565b82525050565b600061010083016000830151611a8f60008601826119f0565b5060208301518482036020860152611aa78282611a10565b91505060408301518482036040860152611ac18282611a10565b9150506060830151611ad660608601826119f0565b506080830151611ae960808601826119f0565b5060a0830151611afc60a0860182611a49565b5060c0830151611b0f60c0860182611a58565b5060e0830151611b2260e0860182611a67565b508091505092915050565b6000611b398383611a76565b905092915050565b6000602082019050919050565b6000611b59826119c4565b611b6381856119cf565b935083602082028501611b75856119e0565b8060005b85811015611bb15784840389528151611b928582611b2d565b9450611b9d83611b41565b925060208a01995050600181019050611b79565b50829750879550505050505092915050565b60006020820190508181036000830152611bdd8184611b4e565b905092915050565b600080fd5b600080fd5b7f4e487b7100000000000000000000000000000000000000000000000000000000600052604160045260246000fd5b611c2782611661565b810181811067ffffffffffffffff82111715611c4657611c45611bef565b5b80604052505050565b6000611c59611595565b9050611c658282611c1e565b919050565b600067ffffffffffffffff821115611c8557611c84611bef565b5b611c8e82611661565b9050602081019050919050565b82818337600083830152505050565b6000611cbd611cb884611c6a565b611c4f565b905082815260208101848484011115611cd957611cd8611bea565b5b611ce4848285611c9b565b509392505050565b600082601f830112611d0157611d00611be5565b5b8135611d11848260208601611caa565b91505092915050565b600080600060608486031215611d3357611d3261159f565b5b600084013567ffffffffffffffff811115611d5157611d506115a4565b5b611d5d86828701611cec565b935050602084013567ffffffffffffffff811115611d7e57611d7d6115a4565b5b611d8a86828701611cec565b9250506040611d9b868287016115ca565b9150509250925092565b7f4e487b7100000000000000000000000000000000000000000000000000000000600052602260045260246000fd5b60006002820490506001821680611dec57607f821691505b602082108103611dff57611dfe611da5565b5b50919050565b7f43616d706169676e20646f6573206e6f74206578697374000000000000000000600082015250565b6000611e3b601783611626565b9150611e4682611e05565b602082019050919050565b60006020820190508181036000830152611e6a81611e2e565b9050919050565b7f4f6e6c792063616d706169676e2063726561746f722063616e20706572666f7260008201527f6d207468697320616374696f6e00000000000000000000000000000000000000602082015250565b6000611ecd602d83611626565b9150611ed882611e71565b604082019050919050565b60006020820190508181036000830152611efc81611ec0565b9050919050565b7f43616d706169676e206d75737420626520636f6d706c65746564206265666f7260008201527f65207769746864726177616c0000000000000000000000000000000000000000602082015250565b6000611f5f602c83611626565b9150611f6a82611f03565b604082019050919050565b60006020820190508181036000830152611f8e81611f52565b9050919050565b7f4e6f2066756e647320746f207769746864726177000000000000000000000000600082015250565b6000611fcb601483611626565b9150611fd682611f95565b602082019050919050565b60006020820190508181036000830152611ffa81611fbe565b9050919050565b600081905092915050565b50565b600061201c600083612001565b91506120278261200c565b600082019050919050565b600061203d8261200f565b9150819050919050565b7f5472616e73666572206661696c65640000000000000000000000000000000000600082015250565b600061207d600f83611626565b915061208882612047565b602082019050919050565b600060208201905081810360008301526120ac81612070565b9050919050565b7f4e487b7100000000000000000000000000000000000000000000000000000000600052601160045260246000fd5b60006120ed826115a9565b91506120f8836115a9565b92508282039050818111156121105761210f6120b3565b5b92915050565b7f4e487b7100000000000000000000000000000000000000000000000000000000600052603260045260246000fd5b6000612150826115a9565b91507fffffffffffffffffffffffffffffffffffffffffffffffffffffffffffffffff8203612182576121816120b3565b5b600182019050919050565b7f43616d706169676e206973206e6f742061637469766500000000000000000000600082015250565b60006121c3601683611626565b91506121ce8261218d565b602082019050919050565b600060208201905081810360008301526121f2816121b6565b9050919050565b7f436f6e747269627574696f6e206d75737420626520677265617465722074686160008201527f6e20300000000000000000000000000000000000000000000000000000000000602082015250565b6000612255602383611626565b9150612260826121f9565b604082019050919050565b6000602082019050818103600083015261228481612248565b9050919050565b6000612296826115a9565b91506122a1836115a9565b92508282019050808211156122b9576122b86120b3565b5b92915050565b60006020820190506122d4600083018461191d565b92915050565b6122e381611763565b81146122ee57600080fd5b50565b600081519050612300816122da565b92915050565b60006020828403121561231c5761231b61159f565b5b600061232a848285016122f1565b91505092915050565b6000815190506123428161181c565b92915050565b60006020828403121561235e5761235d61159f565b5b600061236c84828501612333565b91505092915050565b7f4f6e6c79207665726966696564207573657273206f722061646d696e2063616e60008201527f206372656174652063616d706169676e73000000000000000000000000000000602082015250565b60006123d1603183611626565b91506123dc82612375565b604082019050919050565b60006020820190508181036000830152612400816123c4565b9050919050565b7f5469746c652063616e6e6f7420626520656d7074790000000000000000000000600082015250565b600061243d601583611626565b915061244882612407565b602082019050919050565b6000602082019050818103600083015261246c81612430565b9050919050565b7f4465736372697074696f6e2063616e6e6f7420626520656d7074790000000000600082015250565b60006124a9601b83611626565b91506124b482612473565b602082019050919050565b600060208201905081810360008301526124d88161249c565b9050919050565b7f476f616c206d7573742062652067726561746572207468616e20300000000000600082015250565b6000612515601b83611626565b9150612520826124df565b602082019050919050565b6000602082019050818103600083015261254481612508565b9050919050565b60008190508160005260206000209050919050565b60006020601f8301049050919050565b600082821b905092915050565b6000600883026125ad7fffffffffffffffffffffffffffffffffffffffffffffffffffffffffffffffff82612570565b6125b78683612570565b95508019841693508086168417925050509392505050565b60006125ea6125e56125e0846115a9565b6118a3565b6115a9565b9050919050565b6000819050919050565b612604836125cf565b612618612610826125f1565b84845461257d565b825550505050565b600090565b61262d612620565b6126388184846125fb565b505050565b5b8181101561265c57612651600082612625565b60018101905061263e565b5050565b601f8211156126a1576126728161254b565b61267b84612560565b8101602085101561268a578190505b61269e61269685612560565b83018261263d565b50505b505050565b600082821c905092915050565b60006126c4600019846008026126a6565b1980831691505092915050565b60006126dd83836126b3565b9150826002028217905092915050565b6126f68261161b565b67ffffffffffffffff81111561270f5761270e611bef565b5b6127198254611dd4565b612724828285612660565b600060209050601f8311600181146127575760008415612745578287015190505b61274f85826126d1565b8655506127b7565b601f1984166127658661254b565b60005b8281101561278d57848901518255600182019150602085019450602081019050612768565b868310156127aa57848901516127a6601f8916826126b3565b8355505b6001600288020188555050505b505050505050565b600060608201905081810360008301526127d98186611672565b905081810360208301526127ed8185611672565b90506127fc604083018461160c565b94935050505056fea26469706673582212202df5ac381edf0a467ef273bcd72230cd09fad3668fd33c3bd696fcfc2e11876464736f6c634300081c0033",
  "linkReferences": {},
  "deployedLinkReferences": {}
}