{
  "_format": "hh-sol-artifact-1",
  "contractName": "KYCRegistry_Muneeb",
  "sourceName": "contracts/KYCRegistry_Muneeb.sol",
  "abi": [
    {
      "inputs": [],
      "stateMutability": "nonpayable",
      "type": "constructor"
    },
    {
      "anonymous": false,
      "inputs": [
        {
          "indexed": true,
          "internalType": "address",
          "name": "user",
          "type": "address"
        },
        {
          "indexed": false,
          "internalType": "string",
          "name": "name",
          "type": "string"
        }
      ],
      "name": "KYCApproved",
      "type": "event"
    },
    {
      "anonymous": false,
      "inputs": [
        {
          "indexed": true,
          "internalType": "address",
          "name": "user",
          "type": "address"
        },
        {
          "indexed": false,
          "internalType": "string",
          "name": "name",
          "type": "string"
        }
      ],
      "name": "KYCRejected",
      "type": "event"
    },
    {
      "anonymous": false,
      "inputs": [
        {
          "indexed": true,
          "internalType": "address",
          "name": "user",
          "type": "address"
        },
        {
          "indexed": false,
          "internalType": "string",
          "name": "name",
          "type": "string"
        },
        {
          "indexed": false,
          "internalType": "string",
          "name": "cnic",
          "type": "string"
        }
      ],
      "name": "KYCSubmitted",
      "type": "event"
    },
    {
      "inputs": [],
      "name": "admin",
      "outputs": [
        {
          "internalType": "address",
          "name": "",
          "type": "address"
        }
      ],
      "stateMutability": "view",
      "type": "function"
    },
    {
      "inputs": [
        {
          "internalType": "address",
          "name": "_user",
          "type": "address"
        }
      ],
      "name": "approveKYC",
      "outputs": [],
      "stateMutability": "nonpayable",
      "type": "function"
    },
    {
      "inputs": [
        {
          "internalType": "address",
          "name": "_user",
          "type": "address"
        }
      ],
      "name": "getKYCDetails",
      "outputs": [
        {
          "internalType": "string",
          "name": "name",
          "type": "string"
        },
        {
          "internalType": "string",
          "name": "cnic",
          "type": "string"
        },
        {
          "internalType": "bool",
          "name": "verified",
          "type": "bool"
        },
        {
          "internalType": "bool",
          "name": "exists",
          "type": "bool"
        },
        {
          "internalType": "bool",
          "name": "rejected",
          "type": "bool"
        }
      ],
      "stateMutability": "view",
      "type": "function"
    },
    {
      "inputs": [],
      "name": "getPendingRequests",
      "outputs": [
        {
          "internalType": "address[]",
          "name": "",
          "type": "address[]"
        }
      ],
      "stateMutability": "view",
      "type": "function"
    },
    {
      "inputs": [
        {
          "internalType": "address",
          "name": "_user",
          "type": "address"
        }
      ],
      "name": "isVerified",
      "outputs": [
        {
          "internalType": "bool",
          "name": "",
          "type": "bool"
        }
      ],
      "stateMutability": "view",
      "type": "function"
    },
    {
      "inputs": [
        {
          "internalType": "address",
          "name": "",
          "type": "address"
        }
      ],
      "name": "kycRequests",
      "outputs": [
        {
          "internalType": "string",
          "name": "name",
          "type": "string"
        },
        {
          "internalType": "string",
          "name": "cnic",
          "type": "string"
        },
        {
          "internalType": "bool",
          "name": "isVerified",
          "type": "bool"
        },
        {
          "internalType": "bool",
          "name": "exists",
          "type": "bool"
        },
        {
          "internalType": "bool",
          "name": "isRejected",
          "type": "bool"
        }
      ],
      "stateMutability": "view",
      "type": "function"
    },
    {
      "inputs": [
        {
          "internalType": "uint256",
          "name": "",
          "type": "uint256"
        }
      ],
      "name": "pendingRequests",
      "outputs": [
        {
          "internalType": "address",
          "name": "",
          "type": "address"
        }
      ],
      "stateMutability": "view",
      "type": "function"
    },
    {
      "inputs": [
        {
          "internalType": "address",
          "name": "_user",
          "type": "address"
        }
      ],
      "name": "rejectKYC",
      "outputs": [],
      "stateMutability": "nonpayable",
      "type": "function"
    },
    {
      "inputs": [
        {
          "internalType": "string",
          "name": "_name",
          "type": "string"
        },
        {
          "internalType": "string",
          "name": "_cnic",
          "type": "string"
        }
      ],
      "name": "submitKYC",
      "outputs": [],
      "stateMutability": "nonpayable",
      "type": "function"
    }
  ],
  "bytecode": "0x6080604052348015600f57600080fd5b50336000806101000a81548173ffffffffffffffffffffffffffffffffffffffff021916908373ffffffffffffffffffffffffffffffffffffffff160217905550611d648061005f6000396000f3fe608060405234801561001057600080fd5b50600436106100935760003560e01c806380a1f7121161006657806380a1f71214610134578063b9209e3314610152578063c3d04bc614610182578063c42e5888146101b6578063f851a440146101d257610093565b80630c670595146100985780630e27324d146100b457806319171561146100d05780633c652a9a14610104575b600080fd5b6100b260048036038101906100ad919061127e565b6101f0565b005b6100ce60048036038101906100c99190611354565b61054d565b005b6100ea60048036038101906100e59190611354565b61084a565b6040516100fb95949392919061141b565b60405180910390f35b61011e600480360381019061011991906114b2565b6109b7565b60405161012b91906114ee565b60405180910390f35b61013c6109f6565b60405161014991906115c7565b60405180910390f35b61016c60048036038101906101679190611354565b610a84565b60405161017991906115e9565b60405180910390f35b61019c60048036038101906101979190611354565b610add565b6040516101ad95949392919061141b565b60405180910390f35b6101d060048036038101906101cb9190611354565b610cd4565b005b6101da610f76565b6040516101e791906114ee565b60405180910390f35b600160003373ffffffffffffffffffffffffffffffffffffffff1673ffffffffffffffffffffffffffffffffffffffff16815260200190815260200160002060020160009054906101000a900460ff1615610280576040517f08c379a000000000000000000000000000000000000000000000000000000000815260040161027790611650565b60405180910390fd5b60008251116102c4576040517f08c379a00000000000000000000000000000000000000000000000000000000081526004016102bb906116bc565b60405180910390fd5b6000815111610308576040517f08c379a00000000000000000000000000000000000000000000000000000000081526004016102ff90611728565b60405180910390fd5b600160003373ffffffffffffffffffffffffffffffffffffffff1673ffffffffffffffffffffffffffffffffffffffff16815260200190815260200160002060020160019054906101000a900460ff1615610398576040517f08c379a000000000000000000000000000000000000000000000000000000000815260040161038f90611794565b60405180910390fd5b6040518060a0016040528083815260200182815260200160001515815260200160011515815260200160001515815250600160003373ffffffffffffffffffffffffffffffffffffffff1673ffffffffffffffffffffffffffffffffffffffff168152602001908152602001600020600082015181600001908161041c91906119c0565b50602082015181600101908161043291906119c0565b5060408201518160020160006101000a81548160ff02191690831515021790555060608201518160020160016101000a81548160ff02191690831515021790555060808201518160020160026101000a81548160ff0219169083151502179055509050506002339080600181540180825580915050600190039060005260206000200160009091909190916101000a81548173ffffffffffffffffffffffffffffffffffffffff021916908373ffffffffffffffffffffffffffffffffffffffff1602179055503373ffffffffffffffffffffffffffffffffffffffff167f74aeb3a73c6cebe2ddfb681c384e0117cc8dd5e93900b3b1507dee33c26038418383604051610541929190611a92565b60405180910390a25050565b60008054906101000a900473ffffffffffffffffffffffffffffffffffffffff1673ffffffffffffffffffffffffffffffffffffffff163373ffffffffffffffffffffffffffffffffffffffff16146105db576040517f08c379a00000000000000000000000000000000000000000000000000000000081526004016105d290611b3b565b60405180910390fd5b600160008273ffffffffffffffffffffffffffffffffffffffff1673ffffffffffffffffffffffffffffffffffffffff16815260200190815260200160002060020160019054906101000a900460ff1661066a576040517f08c379a000000000000000000000000000000000000000000000000000000000815260040161066190611ba7565b60405180910390fd5b600160008273ffffffffffffffffffffffffffffffffffffffff1673ffffffffffffffffffffffffffffffffffffffff16815260200190815260200160002060020160009054906101000a900460ff16156106fa576040517f08c379a00000000000000000000000000000000000000000000000000000000081526004016106f190611650565b60405180910390fd5b60018060008373ffffffffffffffffffffffffffffffffffffffff1673ffffffffffffffffffffffffffffffffffffffff16815260200190815260200160002060020160006101000a81548160ff0219169083151502179055506000600160008373ffffffffffffffffffffffffffffffffffffffff1673ffffffffffffffffffffffffffffffffffffffff16815260200190815260200160002060020160026101000a81548160ff0219169083151502179055506107b881610f9a565b8073ffffffffffffffffffffffffffffffffffffffff167f9c6d0ea99590d55d418d15b343f2caf0db5bfde9be3a13389f316a0f736c44f5600160008473ffffffffffffffffffffffffffffffffffffffff1673ffffffffffffffffffffffffffffffffffffffff16815260200190815260200160002060000160405161083f9190611c4b565b60405180910390a250565b600160205280600052604060002060009150905080600001805461086d906117e3565b80601f0160208091040260200160405190810160405280929190818152602001828054610899906117e3565b80156108e65780601f106108bb576101008083540402835291602001916108e6565b820191906000526020600020905b8154815290600101906020018083116108c957829003601f168201915b5050505050908060010180546108fb906117e3565b80601f0160208091040260200160405190810160405280929190818152602001828054610927906117e3565b80156109745780601f1061094957610100808354040283529160200191610974565b820191906000526020600020905b81548152906001019060200180831161095757829003601f168201915b5050505050908060020160009054906101000a900460ff16908060020160019054906101000a900460ff16908060020160029054906101000a900460ff16905085565b600281815481106109c757600080fd5b906000526020600020016000915054906101000a900473ffffffffffffffffffffffffffffffffffffffff1681565b60606002805480602002602001604051908101604052809291908181526020018280548015610a7a57602002820191906000526020600020905b8160009054906101000a900473ffffffffffffffffffffffffffffffffffffffff1673ffffffffffffffffffffffffffffffffffffffff1681526020019060010190808311610a30575b5050505050905090565b6000600160008373ffffffffffffffffffffffffffffffffffffffff1673ffffffffffffffffffffffffffffffffffffffff16815260200190815260200160002060020160009054906101000a900460ff169050919050565b606080600080600080600160008873ffffffffffffffffffffffffffffffffffffffff1673ffffffffffffffffffffffffffffffffffffffff1681526020019081526020016000206040518060a0016040529081600082018054610b40906117e3565b80601f0160208091040260200160405190810160405280929190818152602001828054610b6c906117e3565b8015610bb95780601f10610b8e57610100808354040283529160200191610bb9565b820191906000526020600020905b815481529060010190602001808311610b9c57829003601f168201915b50505050508152602001600182018054610bd2906117e3565b80601f0160208091040260200160405190810160405280929190818152602001828054610bfe906117e3565b8015610c4b5780601f10610c2057610100808354040283529160200191610c4b565b820191906000526020600020905b815481529060010190602001808311610c2e57829003601f168201915b505050505081526020016002820160009054906101000a900460ff161515151581526020016002820160019054906101000a900460ff161515151581526020016002820160029054906101000a900460ff161515151581525050905080600001518160200151826040015183606001518460800151955095509550955095505091939590929450565b60008054906101000a900473ffffffffffffffffffffffffffffffffffffffff1673ffffffffffffffffffffffffffffffffffffffff163373ffffffffffffffffffffffffffffffffffffffff1614610d62576040517f08c379a0000000000000000000000000000000000000000000000000000000008152600401610d5990611b3b565b60405180910390fd5b600160008273ffffffffffffffffffffffffffffffffffffffff1673ffffffffffffffffffffffffffffffffffffffff16815260200190815260200160002060020160019054906101000a900460ff16610df1576040517f08c379a0000000000000000000000000000000000000000000000000000000008152600401610de890611ba7565b60405180910390fd5b600160008273ffffffffffffffffffffffffffffffffffffffff1673ffffffffffffffffffffffffffffffffffffffff16815260200190815260200160002060020160009054906101000a900460ff1615610e81576040517f08c379a0000000000000000000000000000000000000000000000000000000008152600401610e7890611650565b60405180910390fd5b60018060008373ffffffffffffffffffffffffffffffffffffffff1673ffffffffffffffffffffffffffffffffffffffff16815260200190815260200160002060020160026101000a81548160ff021916908315150217905550610ee481610f9a565b8073ffffffffffffffffffffffffffffffffffffffff167f75f84e3d7c86754b3e5f8bc711d431d67ac0d2f50e92f0754c0552da79b49bfd600160008473ffffffffffffffffffffffffffffffffffffffff1673ffffffffffffffffffffffffffffffffffffffff168152602001908152602001600020600001604051610f6b9190611c4b565b60405180910390a250565b60008054906101000a900473ffffffffffffffffffffffffffffffffffffffff1681565b60005b600280549050811015611120578173ffffffffffffffffffffffffffffffffffffffff1660028281548110610fd557610fd4611c6d565b5b9060005260206000200160009054906101000a900473ffffffffffffffffffffffffffffffffffffffff1673ffffffffffffffffffffffffffffffffffffffff1603611113576002600160028054905061102f9190611ccb565b815481106110405761103f611c6d565b5b9060005260206000200160009054906101000a900473ffffffffffffffffffffffffffffffffffffffff166002828154811061107f5761107e611c6d565b5b9060005260206000200160006101000a81548173ffffffffffffffffffffffffffffffffffffffff021916908373ffffffffffffffffffffffffffffffffffffffff16021790555060028054806110d9576110d8611cff565b5b6001900381819060005260206000200160006101000a81549073ffffffffffffffffffffffffffffffffffffffff02191690559055611120565b8080600101915050610f9d565b5050565b6000604051905090565b600080fd5b600080fd5b600080fd5b600080fd5b6000601f19601f8301169050919050565b7f4e487b7100000000000000000000000000000000000000000000000000000000600052604160045260246000fd5b61118b82611142565b810181811067ffffffffffffffff821117156111aa576111a9611153565b5b80604052505050565b60006111bd611124565b90506111c98282611182565b919050565b600067ffffffffffffffff8211156111e9576111e8611153565b5b6111f282611142565b9050602081019050919050565b82818337600083830152505050565b600061122161121c846111ce565b6111b3565b90508281526020810184848401111561123d5761123c61113d565b5b6112488482856111ff565b509392505050565b600082601f83011261126557611264611138565b5b813561127584826020860161120e565b91505092915050565b600080604083850312156112955761129461112e565b5b600083013567ffffffffffffffff8111156112b3576112b2611133565b5b6112bf85828601611250565b925050602083013567ffffffffffffffff8111156112e0576112df611133565b5b6112ec85828601611250565b9150509250929050565b600073ffffffffffffffffffffffffffffffffffffffff82169050919050565b6000611321826112f6565b9050919050565b61133181611316565b811461133c57600080fd5b50565b60008135905061134e81611328565b92915050565b60006020828403121561136a5761136961112e565b5b60006113788482850161133f565b91505092915050565b600081519050919050565b600082825260208201905092915050565b60005b838110156113bb5780820151818401526020810190506113a0565b60008484015250505050565b60006113d282611381565b6113dc818561138c565b93506113ec81856020860161139d565b6113f581611142565b840191505092915050565b60008115159050919050565b61141581611400565b82525050565b600060a082019050818103600083015261143581886113c7565b9050818103602083015261144981876113c7565b9050611458604083018661140c565b611465606083018561140c565b611472608083018461140c565b9695505050505050565b6000819050919050565b61148f8161147c565b811461149a57600080fd5b50565b6000813590506114ac81611486565b92915050565b6000602082840312156114c8576114c761112e565b5b60006114d68482850161149d565b91505092915050565b6114e881611316565b82525050565b600060208201905061150360008301846114df565b92915050565b600081519050919050565b600082825260208201905092915050565b6000819050602082019050919050565b61153e81611316565b82525050565b60006115508383611535565b60208301905092915050565b6000602082019050919050565b600061157482611509565b61157e8185611514565b935061158983611525565b8060005b838110156115ba5781516115a18882611544565b97506115ac8361155c565b92505060018101905061158d565b5085935050505092915050565b600060208201905081810360008301526115e18184611569565b905092915050565b60006020820190506115fe600083018461140c565b92915050565b7f416c726561647920766572696669656400000000000000000000000000000000600082015250565b600061163a60108361138c565b915061164582611604565b602082019050919050565b600060208201905081810360008301526116698161162d565b9050919050565b7f4e616d652063616e6e6f7420626520656d707479000000000000000000000000600082015250565b60006116a660148361138c565b91506116b182611670565b602082019050919050565b600060208201905081810360008301526116d581611699565b9050919050565b7f434e49432063616e6e6f7420626520656d707479000000000000000000000000600082015250565b600061171260148361138c565b915061171d826116dc565b602082019050919050565b6000602082019050818103600083015261174181611705565b9050919050565b7f4b5943207265717565737420616c7265616479207375626d6974746564000000600082015250565b600061177e601d8361138c565b915061178982611748565b602082019050919050565b600060208201905081810360008301526117ad81611771565b9050919050565b7f4e487b7100000000000000000000000000000000000000000000000000000000600052602260045260246000fd5b600060028204905060018216806117fb57607f821691505b60208210810361180e5761180d6117b4565b5b50919050565b60008190508160005260206000209050919050565b60006020601f8301049050919050565b600082821b905092915050565b6000600883026118767fffffffffffffffffffffffffffffffffffffffffffffffffffffffffffffffff82611839565b6118808683611839565b95508019841693508086168417925050509392505050565b6000819050919050565b60006118bd6118b86118b38461147c565b611898565b61147c565b9050919050565b6000819050919050565b6118d7836118a2565b6118eb6118e3826118c4565b848454611846565b825550505050565b600090565b6119006118f3565b61190b8184846118ce565b505050565b5b8181101561192f576119246000826118f8565b600181019050611911565b5050565b601f8211156119745761194581611814565b61194e84611829565b8101602085101561195d578190505b61197161196985611829565b830182611910565b50505b505050565b600082821c905092915050565b600061199760001984600802611979565b1980831691505092915050565b60006119b08383611986565b9150826002028217905092915050565b6119c982611381565b67ffffffffffffffff8111156119e2576119e1611153565b5b6119ec82546117e3565b6119f7828285611933565b600060209050601f831160018114611a2a5760008415611a18578287015190505b611a2285826119a4565b865550611a8a565b601f198416611a3886611814565b60005b82811015611a6057848901518255600182019150602085019450602081019050611a3b565b86831015611a7d5784890151611a79601f891682611986565b8355505b6001600288020188555050505b505050505050565b60006040820190508181036000830152611aac81856113c7565b90508181036020830152611ac081846113c7565b90509392505050565b7f4f6e6c792061646d696e2063616e20706572666f726d2074686973206163746960008201527f6f6e000000000000000000000000000000000000000000000000000000000000602082015250565b6000611b2560228361138c565b9150611b3082611ac9565b604082019050919050565b60006020820190508181036000830152611b5481611b18565b9050919050565b7f4b5943207265717565737420646f6573206e6f74206578697374000000000000600082015250565b6000611b91601a8361138c565b9150611b9c82611b5b565b602082019050919050565b60006020820190508181036000830152611bc081611b84565b9050919050565b60008154611bd4816117e3565b611bde818661138c565b94506001821660008114611bf95760018114611c0f57611c42565b60ff198316865281151560200286019350611c42565b611c1885611814565b60005b83811015611c3a57815481890152600182019150602081019050611c1b565b808801955050505b50505092915050565b60006020820190508181036000830152611c658184611bc7565b905092915050565b7f4e487b7100000000000000000000000000000000000000000000000000000000600052603260045260246000fd5b7f4e487b7100000000000000000000000000000000000000000000000000000000600052601160045260246000fd5b6000611cd68261147c565b9150611ce18361147c565b9250828203905081811115611cf957611cf8611c9c565b5b92915050565b7f4e487b7100000000000000000000000000000000000000000000000000000000600052603160045260246000fdfea2646970667358221220f55216f302fbef0d4a1c90936f823cc119050e592e9f7924dcc753c03f7b3a0764736f6c634300081c0033",
  "linkReferences": {},
  "deployedLinkReferences": {}
}